{
  "_format": "hh-sol-artifact-1",
  "contractName": "FactoryOptimized",
  "sourceName": "contracts/FactoryOptimized.sol",
  "abi": [
    {
      "inputs": [
        {
          "internalType": "address",
          "name": "_backend",
          "type": "address"
        }
      ],
      "stateMutability": "nonpayable",
      "type": "constructor"
    },
    {
      "anonymous": false,
      "inputs": [
        {
          "indexed": true,
          "internalType": "address",
          "name": "user",
          "type": "address"
        },
        {
          "indexed": false,
          "internalType": "address",
          "name": "stakingContract",
          "type": "address"
        }
      ],
      "name": "StakingContractDeployed",
      "type": "event"
    },
    {
      "inputs": [],
      "name": "backendAddress",
      "outputs": [
        {
          "internalType": "address",
          "name": "",
          "type": "address"
        }
      ],
      "stateMutability": "view",
      "type": "function"
    },
    {
      "inputs": [],
      "name": "deployStakingContract",
      "outputs": [
        {
          "internalType": "address",
          "name": "",
          "type": "address"
        }
      ],
      "stateMutability": "nonpayable",
      "type": "function"
    },
    {
      "inputs": [
        {
          "internalType": "address",
          "name": "user",
          "type": "address"
        }
      ],
      "name": "getUserStakingContract",
      "outputs": [
        {
          "internalType": "address",
          "name": "",
          "type": "address"
        }
      ],
      "stateMutability": "view",
      "type": "function"
    },
    {
      "inputs": [
        {
          "internalType": "address",
          "name": "user",
          "type": "address"
        }
      ],
      "name": "hasStakingContract",
      "outputs": [
        {
          "internalType": "bool",
          "name": "",
          "type": "bool"
        }
      ],
      "stateMutability": "view",
      "type": "function"
    },
    {
      "inputs": [
        {
          "internalType": "address",
          "name": "",
          "type": "address"
        }
      ],
      "name": "userStakingContracts",
      "outputs": [
        {
          "internalType": "address",
          "name": "",
          "type": "address"
        }
      ],
      "stateMutability": "view",
      "type": "function"
    }
  ],
  "bytecode": "0x608060405234801561001057600080fd5b506040516112853803806112858339818101604052810190610032919061014a565b600073ffffffffffffffffffffffffffffffffffffffff168173ffffffffffffffffffffffffffffffffffffffff16036100a1576040517f08c379a0000000000000000000000000000000000000000000000000000000008152600401610098906101d4565b60405180910390fd5b806000806101000a81548173ffffffffffffffffffffffffffffffffffffffff021916908373ffffffffffffffffffffffffffffffffffffffff160217905550506101f4565b600080fd5b600073ffffffffffffffffffffffffffffffffffffffff82169050919050565b6000610117826100ec565b9050919050565b6101278161010c565b811461013257600080fd5b50565b6000815190506101448161011e565b92915050565b6000602082840312156101605761015f6100e7565b5b600061016e84828501610135565b91505092915050565b600082825260208201905092915050565b7f496e76616c6964206261636b656e640000000000000000000000000000000000600082015250565b60006101be600f83610177565b91506101c982610188565b602082019050919050565b600060208201905081810360008301526101ed816101b1565b9050919050565b611082806102036000396000f3fe608060405234801561001057600080fd5b50600436106100575760003560e01c80630d72d57f1461005c5780632ad802fb1461007a5780632c7ec074146100aa5780633744aef5146100da57806341f5e184146100f8575b600080fd5b610064610128565b60405161007191906104ca565b60405180910390f35b610094600480360381019061008f9190610516565b61014c565b6040516100a191906104ca565b60405180910390f35b6100c460048036038101906100bf9190610516565b61017f565b6040516100d191906104ca565b60405180910390f35b6100e26101e8565b6040516100ef91906104ca565b60405180910390f35b610112600480360381019061010d9190610516565b6103e4565b60405161011f919061055e565b60405180910390f35b60008054906101000a900473ffffffffffffffffffffffffffffffffffffffff1681565b60016020528060005260406000206000915054906101000a900473ffffffffffffffffffffffffffffffffffffffff1681565b6000600160008373ffffffffffffffffffffffffffffffffffffffff1673ffffffffffffffffffffffffffffffffffffffff16815260200190815260200160002060009054906101000a900473ffffffffffffffffffffffffffffffffffffffff169050919050565b60008073ffffffffffffffffffffffffffffffffffffffff16600160003373ffffffffffffffffffffffffffffffffffffffff1673ffffffffffffffffffffffffffffffffffffffff16815260200190815260200160002060009054906101000a900473ffffffffffffffffffffffffffffffffffffffff1673ffffffffffffffffffffffffffffffffffffffff16146102b7576040517f08c379a00000000000000000000000000000000000000000000000000000000081526004016102ae906105d6565b60405180910390fd5b60003360008054906101000a900473ffffffffffffffffffffffffffffffffffffffff166040516102e79061047c565b6102f29291906105f6565b604051809103906000f08015801561030e573d6000803e3d6000fd5b50905080600160003373ffffffffffffffffffffffffffffffffffffffff1673ffffffffffffffffffffffffffffffffffffffff16815260200190815260200160002060006101000a81548173ffffffffffffffffffffffffffffffffffffffff021916908373ffffffffffffffffffffffffffffffffffffffff1602179055503373ffffffffffffffffffffffffffffffffffffffff167fb33ca3007e6963e931eb002c84c2de907193c5e7d89466074057939fedda2c8a826040516103d591906104ca565b60405180910390a28091505090565b60008073ffffffffffffffffffffffffffffffffffffffff16600160008473ffffffffffffffffffffffffffffffffffffffff1673ffffffffffffffffffffffffffffffffffffffff16815260200190815260200160002060009054906101000a900473ffffffffffffffffffffffffffffffffffffffff1673ffffffffffffffffffffffffffffffffffffffff1614159050919050565b610a2d8061062083390190565b600073ffffffffffffffffffffffffffffffffffffffff82169050919050565b60006104b482610489565b9050919050565b6104c4816104a9565b82525050565b60006020820190506104df60008301846104bb565b92915050565b600080fd5b6104f3816104a9565b81146104fe57600080fd5b50565b600081359050610510816104ea565b92915050565b60006020828403121561052c5761052b6104e5565b5b600061053a84828501610501565b91505092915050565b60008115159050919050565b61055881610543565b82525050565b6000602082019050610573600083018461054f565b92915050565b600082825260208201905092915050565b7f416c7265616479206465706c6f79656400000000000000000000000000000000600082015250565b60006105c0601083610579565b91506105cb8261058a565b602082019050919050565b600060208201905081810360008301526105ef816105b3565b9050919050565b600060408201905061060b60008301856104bb565b61061860208301846104bb565b939250505056fe60c060405234801561001057600080fd5b50604051610a2d380380610a2d83398181016040528101906100329190610104565b8173ffffffffffffffffffffffffffffffffffffffff1660808173ffffffffffffffffffffffffffffffffffffffff16815250508073ffffffffffffffffffffffffffffffffffffffff1660a08173ffffffffffffffffffffffffffffffffffffffff16815250505050610144565b600080fd5b600073ffffffffffffffffffffffffffffffffffffffff82169050919050565b60006100d1826100a6565b9050919050565b6100e1816100c6565b81146100ec57600080fd5b50565b6000815190506100fe816100d8565b92915050565b6000806040838503121561011b5761011a6100a1565b5b6000610129858286016100ef565b925050602061013a858286016100ef565b9150509250929050565b60805160a0516108af61017e6000396000818161017001528181610194015261028d015260008181610353015261038a01526108af6000f3fe6080604052600436106100705760003560e01c80634e69d5601161004e5780634e69d560146100e25780634f8632ba1461010e57806353d21c901461013957806366519bd61461016457610070565b8063099e4133146100755780632da25de3146100a0578063373d6132146100b7575b600080fd5b34801561008157600080fd5b5061008a61016e565b604051610097919061053b565b60405180910390f35b3480156100ac57600080fd5b506100b5610192565b005b3480156100c357600080fd5b506100cc61032c565b6040516100d9919061056f565b60405180910390f35b3480156100ee57600080fd5b506100f7610332565b6040516101059291906105a5565b60405180910390f35b34801561011a57600080fd5b50610123610351565b604051610130919061053b565b60405180910390f35b34801561014557600080fd5b5061014e610375565b60405161015b91906105ce565b60405180910390f35b61016c610388565b005b7f000000000000000000000000000000000000000000000000000000000000000081565b7f000000000000000000000000000000000000000000000000000000000000000073ffffffffffffffffffffffffffffffffffffffff163373ffffffffffffffffffffffffffffffffffffffff1614610220576040517f08c379a000000000000000000000000000000000000000000000000000000000815260040161021790610646565b60405180910390fd5b6000805411610264576040517f08c379a000000000000000000000000000000000000000000000000000000000815260040161025b906106b2565b60405180910390fd5b60018060006101000a81548160ff021916908315150217905550600080549050600080819055507f000000000000000000000000000000000000000000000000000000000000000073ffffffffffffffffffffffffffffffffffffffff166108fc829081150290604051600060405180830381858888f193505050501580156102f1573d6000803e3d6000fd5b507f0a6331e5cfe25333c065863fddcbcd3c103d07a3aaa549b327736ccb1e7b3cab81604051610321919061056f565b60405180910390a150565b60005481565b600080600054600160009054906101000a900460ff1615915091509091565b7f000000000000000000000000000000000000000000000000000000000000000081565b600160009054906101000a900460ff1681565b7f000000000000000000000000000000000000000000000000000000000000000073ffffffffffffffffffffffffffffffffffffffff163373ffffffffffffffffffffffffffffffffffffffff1614610416576040517f08c379a000000000000000000000000000000000000000000000000000000000815260040161040d9061071e565b60405180910390fd5b600160009054906101000a900460ff1615610466576040517f08c379a000000000000000000000000000000000000000000000000000000000815260040161045d9061078a565b60405180910390fd5b600034116104a9576040517f08c379a00000000000000000000000000000000000000000000000000000000081526004016104a0906107f6565b60405180910390fd5b346000808282546104ba9190610845565b925050819055507feebbaa86c348cb664e392b180fd0ff2e1998af9fa833ef69a778cb0b42d3ca27346040516104f0919061056f565b60405180910390a1565b600073ffffffffffffffffffffffffffffffffffffffff82169050919050565b6000610525826104fa565b9050919050565b6105358161051a565b82525050565b6000602082019050610550600083018461052c565b92915050565b6000819050919050565b61056981610556565b82525050565b60006020820190506105846000830184610560565b92915050565b60008115159050919050565b61059f8161058a565b82525050565b60006040820190506105ba6000830185610560565b6105c76020830184610596565b9392505050565b60006020820190506105e36000830184610596565b92915050565b600082825260208201905092915050565b7f4f6e6c79206261636b656e640000000000000000000000000000000000000000600082015250565b6000610630600c836105e9565b915061063b826105fa565b602082019050919050565b6000602082019050818103600083015261065f81610623565b9050919050565b7f4e6f207374616b65000000000000000000000000000000000000000000000000600082015250565b600061069c6008836105e9565b91506106a782610666565b602082019050919050565b600060208201905081810360008301526106cb8161068f565b9050919050565b7f4f6e6c7920757365720000000000000000000000000000000000000000000000600082015250565b60006107086009836105e9565b9150610713826106d2565b602082019050919050565b60006020820190508181036000830152610737816106fb565b9050919050565b7f536c617368656400000000000000000000000000000000000000000000000000600082015250565b60006107746007836105e9565b915061077f8261073e565b602082019050919050565b600060208201905081810360008301526107a381610767565b9050919050565b7f4e6f2076616c7565000000000000000000000000000000000000000000000000600082015250565b60006107e06008836105e9565b91506107eb826107aa565b602082019050919050565b6000602082019050818103600083015261080f816107d3565b9050919050565b7f4e487b7100000000000000000000000000000000000000000000000000000000600052601160045260246000fd5b600061085082610556565b915061085b83610556565b925082820190508082111561087357610872610816565b5b9291505056fea26469706673582212202aa496442ae705c4239d16aa4a7165d6dea9806e6798660da6ca2eb5bb3973e064736f6c63430008180033a2646970667358221220595f01314cc3b19d8db89fe17d47b02005726bc3a782b829ce425d47819cd1a864736f6c63430008180033",
  "linkReferences": {},
  "deployedLinkReferences": {}
}