{
  "_format": "hh-sol-artifact-1",
  "contractName": "MinimalStaking",
  "sourceName": "contracts/FactoryOptimized.sol",
  "abi": [
    {
      "inputs": [
        {
          "internalType": "address",
          "name": "_user",
          "type": "address"
        },
        {
          "internalType": "address",
          "name": "_backend",
          "type": "address"
        }
      ],
      "stateMutability": "nonpayable",
      "type": "constructor"
    },
    {
      "anonymous": false,
      "inputs": [
        {
          "indexed": false,
          "internalType": "string",
          "name": "reason",
          "type": "string"
        },
        {
          "indexed": false,
          "internalType": "uint256",
          "name": "amount",
          "type": "uint256"
        }
      ],
      "name": "FundsSlashed",
      "type": "event"
    },
    {
      "anonymous": false,
      "inputs": [
        {
          "indexed": false,
          "internalType": "uint256",
          "name": "amount",
          "type": "uint256"
        }
      ],
      "name": "Slashed",
      "type": "event"
    },
    {
      "anonymous": false,
      "inputs": [
        {
          "indexed": false,
          "internalType": "uint256",
          "name": "amount",
          "type": "uint256"
        }
      ],
      "name": "Staked",
      "type": "event"
    },
    {
      "anonymous": false,
      "inputs": [
        {
          "indexed": false,
          "internalType": "string",
          "name": "tradeId",
          "type": "string"
        }
      ],
      "name": "TradeCompleted",
      "type": "event"
    },
    {
      "anonymous": false,
      "inputs": [
        {
          "indexed": false,
          "internalType": "string",
          "name": "tradeId",
          "type": "string"
        }
      ],
      "name": "TradeRegistered",
      "type": "event"
    },
    {
      "inputs": [
        {
          "internalType": "string",
          "name": "",
          "type": "string"
        }
      ],
      "name": "activeTrades",
      "outputs": [
        {
          "internalType": "bool",
          "name": "",
          "type": "bool"
        }
      ],
      "stateMutability": "view",
      "type": "function"
    },
    {
      "inputs": [],
      "name": "backend",
      "outputs": [
        {
          "internalType": "address",
          "name": "",
          "type": "address"
        }
      ],
      "stateMutability": "view",
      "type": "function"
    },
    {
      "inputs": [
        {
          "internalType": "string",
          "name": "tradeId",
          "type": "string"
        }
      ],
      "name": "completeTrade",
      "outputs": [],
      "stateMutability": "nonpayable",
      "type": "function"
    },
    {
      "inputs": [],
      "name": "depositAndStake",
      "outputs": [],
      "stateMutability": "payable",
      "type": "function"
    },
    {
      "inputs": [],
      "name": "getStatus",
      "outputs": [
        {
          "internalType": "uint256",
          "name": "",
          "type": "uint256"
        },
        {
          "internalType": "bool",
          "name": "",
          "type": "bool"
        }
      ],
      "stateMutability": "view",
      "type": "function"
    },
    {
      "inputs": [
        {
          "internalType": "uint256",
          "name": "amount",
          "type": "uint256"
        }
      ],
      "name": "hasSufficientStake",
      "outputs": [
        {
          "internalType": "bool",
          "name": "",
          "type": "bool"
        }
      ],
      "stateMutability": "view",
      "type": "function"
    },
    {
      "inputs": [],
      "name": "isSlashed",
      "outputs": [
        {
          "internalType": "bool",
          "name": "",
          "type": "bool"
        }
      ],
      "stateMutability": "view",
      "type": "function"
    },
    {
      "inputs": [
        {
          "internalType": "string",
          "name": "tradeId",
          "type": "string"
        }
      ],
      "name": "registerTrade",
      "outputs": [],
      "stateMutability": "nonpayable",
      "type": "function"
    },
    {
      "inputs": [],
      "name": "slash",
      "outputs": [],
      "stateMutability": "nonpayable",
      "type": "function"
    },
    {
      "inputs": [
        {
          "internalType": "string",
          "name": "reason",
          "type": "string"
        }
      ],
      "name": "slashWithReason",
      "outputs": [],
      "stateMutability": "nonpayable",
      "type": "function"
    },
    {
      "inputs": [],
      "name": "stakedAmount",
      "outputs": [
        {
          "internalType": "uint256",
          "name": "",
          "type": "uint256"
        }
      ],
      "stateMutability": "view",
      "type": "function"
    },
    {
      "inputs": [],
      "name": "user",
      "outputs": [
        {
          "internalType": "address",
          "name": "",
          "type": "address"
        }
      ],
      "stateMutability": "view",
      "type": "function"
    }
  ],
  "bytecode": "0x60c06040523480156200001157600080fd5b506040516200149138038062001491833981810160405281019062000037919062000111565b8173ffffffffffffffffffffffffffffffffffffffff1660808173ffffffffffffffffffffffffffffffffffffffff16815250508073ffffffffffffffffffffffffffffffffffffffff1660a08173ffffffffffffffffffffffffffffffffffffffff1681525050505062000158565b600080fd5b600073ffffffffffffffffffffffffffffffffffffffff82169050919050565b6000620000d982620000ac565b9050919050565b620000eb81620000cc565b8114620000f757600080fd5b50565b6000815190506200010b81620000e0565b92915050565b600080604083850312156200012b576200012a620000a7565b5b60006200013b85828601620000fa565b92505060206200014e85828601620000fa565b9150509250929050565b60805160a0516112e2620001af6000396000818161029c015281816102c0015281816103b90152818161045d0152818161055601528181610823015261098d01526000818161067a01526106b101526112e26000f3fe6080604052600436106100a75760003560e01c80634e69d560116100645780634e69d560146101bc5780634f8632ba146101e857806353d21c901461021357806366519bd61461023e57806396bd2f5114610248578063f6bddf4814610271576100a7565b8063099e4133146100ac57806321c61ba1146100d75780632da25de314610100578063373d6132146101175780633e42672a146101425780634c10f1eb1461017f575b600080fd5b3480156100b857600080fd5b506100c161029a565b6040516100ce9190610b87565b60405180910390f35b3480156100e357600080fd5b506100fe60048036038101906100f99190610cfc565b6102be565b005b34801561010c57600080fd5b5061011561045b565b005b34801561012357600080fd5b5061012c6105f5565b6040516101399190610d5e565b60405180910390f35b34801561014e57600080fd5b5061016960048036038101906101649190610da5565b6105fb565b6040516101769190610ded565b60405180910390f35b34801561018b57600080fd5b506101a660048036038101906101a19190610cfc565b610623565b6040516101b39190610ded565b60405180910390f35b3480156101c857600080fd5b506101d1610659565b6040516101df929190610e08565b60405180910390f35b3480156101f457600080fd5b506101fd610678565b60405161020a9190610b87565b60405180910390f35b34801561021f57600080fd5b5061022861069c565b6040516102359190610ded565b60405180910390f35b6102466106af565b005b34801561025457600080fd5b5061026f600480360381019061026a9190610cfc565b610821565b005b34801561027d57600080fd5b5061029860048036038101906102939190610cfc565b61098b565b005b7f000000000000000000000000000000000000000000000000000000000000000081565b7f000000000000000000000000000000000000000000000000000000000000000073ffffffffffffffffffffffffffffffffffffffff163373ffffffffffffffffffffffffffffffffffffffff161461034c576040517f08c379a000000000000000000000000000000000000000000000000000000000815260040161034390610e8e565b60405180910390fd5b6000805411610390576040517f08c379a000000000000000000000000000000000000000000000000000000000815260040161038790610efa565b60405180910390fd5b60018060006101000a81548160ff021916908315150217905550600080549050600080819055507f000000000000000000000000000000000000000000000000000000000000000073ffffffffffffffffffffffffffffffffffffffff166108fc829081150290604051600060405180830381858888f1935050505015801561041d573d6000803e3d6000fd5b507fd6b9bb9fd94c3cd89f56be487d4a54c8ee880eff62e3346d543ce6e0a29ee2c7828260405161044f929190610f88565b60405180910390a15050565b7f000000000000000000000000000000000000000000000000000000000000000073ffffffffffffffffffffffffffffffffffffffff163373ffffffffffffffffffffffffffffffffffffffff16146104e9576040517f08c379a00000000000000000000000000000000000000000000000000000000081526004016104e090610e8e565b60405180910390fd5b600080541161052d576040517f08c379a000000000000000000000000000000000000000000000000000000000815260040161052490610efa565b60405180910390fd5b60018060006101000a81548160ff021916908315150217905550600080549050600080819055507f000000000000000000000000000000000000000000000000000000000000000073ffffffffffffffffffffffffffffffffffffffff166108fc829081150290604051600060405180830381858888f193505050501580156105ba573d6000803e3d6000fd5b507f0a6331e5cfe25333c065863fddcbcd3c103d07a3aaa549b327736ccb1e7b3cab816040516105ea9190610d5e565b60405180910390a150565b60005481565b6000816000541015801561061c5750600160009054906101000a900460ff16155b9050919050565b6002818051602081018201805184825260208301602085012081835280955050505050506000915054906101000a900460ff1681565b600080600054600160009054906101000a900460ff1615915091509091565b7f000000000000000000000000000000000000000000000000000000000000000081565b600160009054906101000a900460ff1681565b7f000000000000000000000000000000000000000000000000000000000000000073ffffffffffffffffffffffffffffffffffffffff163373ffffffffffffffffffffffffffffffffffffffff161461073d576040517f08c379a000000000000000000000000000000000000000000000000000000000815260040161073490611004565b60405180910390fd5b600160009054906101000a900460ff161561078d576040517f08c379a000000000000000000000000000000000000000000000000000000000815260040161078490611070565b60405180910390fd5b600034116107d0576040517f08c379a00000000000000000000000000000000000000000000000000000000081526004016107c7906110dc565b60405180910390fd5b346000808282546107e1919061112b565b925050819055507feebbaa86c348cb664e392b180fd0ff2e1998af9fa833ef69a778cb0b42d3ca27346040516108179190610d5e565b60405180910390a1565b7f000000000000000000000000000000000000000000000000000000000000000073ffffffffffffffffffffffffffffffffffffffff163373ffffffffffffffffffffffffffffffffffffffff16146108af576040517f08c379a00000000000000000000000000000000000000000000000000000000081526004016108a690610e8e565b60405180910390fd5b6002816040516108bf919061119b565b908152602001604051809103902060009054906101000a900460ff1661091a576040517f08c379a0000000000000000000000000000000000000000000000000000000008152600401610911906111fe565b60405180910390fd5b600060028260405161092c919061119b565b908152602001604051809103902060006101000a81548160ff0219169083151502179055507fe617adcd67d096536e57efdd97e74586689dcbd61e150e6fe63c08a78e198adb81604051610980919061121e565b60405180910390a150565b7f000000000000000000000000000000000000000000000000000000000000000073ffffffffffffffffffffffffffffffffffffffff163373ffffffffffffffffffffffffffffffffffffffff1614610a19576040517f08c379a0000000000000000000000000000000000000000000000000000000008152600401610a1090610e8e565b60405180910390fd5b600160009054906101000a900460ff1615610a69576040517f08c379a0000000000000000000000000000000000000000000000000000000008152600401610a6090611070565b60405180910390fd5b600281604051610a79919061119b565b908152602001604051809103902060009054906101000a900460ff1615610ad5576040517f08c379a0000000000000000000000000000000000000000000000000000000008152600401610acc9061128c565b60405180910390fd5b6001600282604051610ae7919061119b565b908152602001604051809103902060006101000a81548160ff0219169083151502179055507fb07aff3f1bdb11998bb847f501ffd8720e1f721dac70b8ae251a74f96cae061881604051610b3b919061121e565b60405180910390a150565b600073ffffffffffffffffffffffffffffffffffffffff82169050919050565b6000610b7182610b46565b9050919050565b610b8181610b66565b82525050565b6000602082019050610b9c6000830184610b78565b92915050565b6000604051905090565b600080fd5b600080fd5b600080fd5b600080fd5b6000601f19601f8301169050919050565b7f4e487b7100000000000000000000000000000000000000000000000000000000600052604160045260246000fd5b610c0982610bc0565b810181811067ffffffffffffffff82111715610c2857610c27610bd1565b5b80604052505050565b6000610c3b610ba2565b9050610c478282610c00565b919050565b600067ffffffffffffffff821115610c6757610c66610bd1565b5b610c7082610bc0565b9050602081019050919050565b82818337600083830152505050565b6000610c9f610c9a84610c4c565b610c31565b905082815260208101848484011115610cbb57610cba610bbb565b5b610cc6848285610c7d565b509392505050565b600082601f830112610ce357610ce2610bb6565b5b8135610cf3848260208601610c8c565b91505092915050565b600060208284031215610d1257610d11610bac565b5b600082013567ffffffffffffffff811115610d3057610d2f610bb1565b5b610d3c84828501610cce565b91505092915050565b6000819050919050565b610d5881610d45565b82525050565b6000602082019050610d736000830184610d4f565b92915050565b610d8281610d45565b8114610d8d57600080fd5b50565b600081359050610d9f81610d79565b92915050565b600060208284031215610dbb57610dba610bac565b5b6000610dc984828501610d90565b91505092915050565b60008115159050919050565b610de781610dd2565b82525050565b6000602082019050610e026000830184610dde565b92915050565b6000604082019050610e1d6000830185610d4f565b610e2a6020830184610dde565b9392505050565b600082825260208201905092915050565b7f4f6e6c79206261636b656e640000000000000000000000000000000000000000600082015250565b6000610e78600c83610e31565b9150610e8382610e42565b602082019050919050565b60006020820190508181036000830152610ea781610e6b565b9050919050565b7f4e6f207374616b65000000000000000000000000000000000000000000000000600082015250565b6000610ee4600883610e31565b9150610eef82610eae565b602082019050919050565b60006020820190508181036000830152610f1381610ed7565b9050919050565b600081519050919050565b60005b83811015610f43578082015181840152602081019050610f28565b60008484015250505050565b6000610f5a82610f1a565b610f648185610e31565b9350610f74818560208601610f25565b610f7d81610bc0565b840191505092915050565b60006040820190508181036000830152610fa28185610f4f565b9050610fb16020830184610d4f565b9392505050565b7f4f6e6c7920757365720000000000000000000000000000000000000000000000600082015250565b6000610fee600983610e31565b9150610ff982610fb8565b602082019050919050565b6000602082019050818103600083015261101d81610fe1565b9050919050565b7f536c617368656400000000000000000000000000000000000000000000000000600082015250565b600061105a600783610e31565b915061106582611024565b602082019050919050565b600060208201905081810360008301526110898161104d565b9050919050565b7f4e6f2076616c7565000000000000000000000000000000000000000000000000600082015250565b60006110c6600883610e31565b91506110d182611090565b602082019050919050565b600060208201905081810360008301526110f5816110b9565b9050919050565b7f4e487b7100000000000000000000000000000000000000000000000000000000600052601160045260246000fd5b600061113682610d45565b915061114183610d45565b9250828201905080821115611159576111586110fc565b5b92915050565b600081905092915050565b600061117582610f1a565b61117f818561115f565b935061118f818560208601610f25565b80840191505092915050565b60006111a7828461116a565b915081905092915050565b7f5472616465206e6f7420666f756e640000000000000000000000000000000000600082015250565b60006111e8600f83610e31565b91506111f3826111b2565b602082019050919050565b60006020820190508181036000830152611217816111db565b9050919050565b600060208201905081810360008301526112388184610f4f565b905092915050565b7f5472616465206578697374730000000000000000000000000000000000000000600082015250565b6000611276600c83610e31565b915061128182611240565b602082019050919050565b600060208201905081810360008301526112a581611269565b905091905056fea2646970667358221220499762c6437d4af1fc090fd670f85cba7599f0ac15c3c3f509dea16cf3b771e864736f6c63430008180033",
  "linkReferences": {},
  "deployedLinkReferences": {}
}