{
  "_format": "hh-sol-artifact-1",
  "contractName": "MinimalStaking",
  "sourceName": "contracts/FactoryOptimized.sol",
  "abi": [
    {
      "inputs": [
        {
          "internalType": "address",
          "name": "_user",
          "type": "address"
        },
        {
          "internalType": "address",
          "name": "_backend",
          "type": "address"
        }
      ],
      "stateMutability": "nonpayable",
      "type": "constructor"
    },
    {
      "anonymous": false,
      "inputs": [
        {
          "indexed": false,
          "internalType": "uint256",
          "name": "amount",
          "type": "uint256"
        }
      ],
      "name": "Slashed",
      "type": "event"
    },
    {
      "anonymous": false,
      "inputs": [
        {
          "indexed": false,
          "internalType": "uint256",
          "name": "amount",
          "type": "uint256"
        }
      ],
      "name": "Staked",
      "type": "event"
    },
    {
      "inputs": [],
      "name": "backend",
      "outputs": [
        {
          "internalType": "address",
          "name": "",
          "type": "address"
        }
      ],
      "stateMutability": "view",
      "type": "function"
    },
    {
      "inputs": [],
      "name": "depositAndStake",
      "outputs": [],
      "stateMutability": "payable",
      "type": "function"
    },
    {
      "inputs": [],
      "name": "getStatus",
      "outputs": [
        {
          "internalType": "uint256",
          "name": "",
          "type": "uint256"
        },
        {
          "internalType": "bool",
          "name": "",
          "type": "bool"
        }
      ],
      "stateMutability": "view",
      "type": "function"
    },
    {
      "inputs": [],
      "name": "isSlashed",
      "outputs": [
        {
          "internalType": "bool",
          "name": "",
          "type": "bool"
        }
      ],
      "stateMutability": "view",
      "type": "function"
    },
    {
      "inputs": [],
      "name": "slash",
      "outputs": [],
      "stateMutability": "nonpayable",
      "type": "function"
    },
    {
      "inputs": [],
      "name": "stakedAmount",
      "outputs": [
        {
          "internalType": "uint256",
          "name": "",
          "type": "uint256"
        }
      ],
      "stateMutability": "view",
      "type": "function"
    },
    {
      "inputs": [],
      "name": "user",
      "outputs": [
        {
          "internalType": "address",
          "name": "",
          "type": "address"
        }
      ],
      "stateMutability": "view",
      "type": "function"
    }
  ],
  "bytecode": "0x60c060405234801561001057600080fd5b50604051610a2d380380610a2d83398181016040528101906100329190610104565b8173ffffffffffffffffffffffffffffffffffffffff1660808173ffffffffffffffffffffffffffffffffffffffff16815250508073ffffffffffffffffffffffffffffffffffffffff1660a08173ffffffffffffffffffffffffffffffffffffffff16815250505050610144565b600080fd5b600073ffffffffffffffffffffffffffffffffffffffff82169050919050565b60006100d1826100a6565b9050919050565b6100e1816100c6565b81146100ec57600080fd5b50565b6000815190506100fe816100d8565b92915050565b6000806040838503121561011b5761011a6100a1565b5b6000610129858286016100ef565b925050602061013a858286016100ef565b9150509250929050565b60805160a0516108af61017e6000396000818161017001528181610194015261028d015260008181610353015261038a01526108af6000f3fe6080604052600436106100705760003560e01c80634e69d5601161004e5780634e69d560146100e25780634f8632ba1461010e57806353d21c901461013957806366519bd61461016457610070565b8063099e4133146100755780632da25de3146100a0578063373d6132146100b7575b600080fd5b34801561008157600080fd5b5061008a61016e565b604051610097919061053b565b60405180910390f35b3480156100ac57600080fd5b506100b5610192565b005b3480156100c357600080fd5b506100cc61032c565b6040516100d9919061056f565b60405180910390f35b3480156100ee57600080fd5b506100f7610332565b6040516101059291906105a5565b60405180910390f35b34801561011a57600080fd5b50610123610351565b604051610130919061053b565b60405180910390f35b34801561014557600080fd5b5061014e610375565b60405161015b91906105ce565b60405180910390f35b61016c610388565b005b7f000000000000000000000000000000000000000000000000000000000000000081565b7f000000000000000000000000000000000000000000000000000000000000000073ffffffffffffffffffffffffffffffffffffffff163373ffffffffffffffffffffffffffffffffffffffff1614610220576040517f08c379a000000000000000000000000000000000000000000000000000000000815260040161021790610646565b60405180910390fd5b6000805411610264576040517f08c379a000000000000000000000000000000000000000000000000000000000815260040161025b906106b2565b60405180910390fd5b60018060006101000a81548160ff021916908315150217905550600080549050600080819055507f000000000000000000000000000000000000000000000000000000000000000073ffffffffffffffffffffffffffffffffffffffff166108fc829081150290604051600060405180830381858888f193505050501580156102f1573d6000803e3d6000fd5b507f0a6331e5cfe25333c065863fddcbcd3c103d07a3aaa549b327736ccb1e7b3cab81604051610321919061056f565b60405180910390a150565b60005481565b600080600054600160009054906101000a900460ff1615915091509091565b7f000000000000000000000000000000000000000000000000000000000000000081565b600160009054906101000a900460ff1681565b7f000000000000000000000000000000000000000000000000000000000000000073ffffffffffffffffffffffffffffffffffffffff163373ffffffffffffffffffffffffffffffffffffffff1614610416576040517f08c379a000000000000000000000000000000000000000000000000000000000815260040161040d9061071e565b60405180910390fd5b600160009054906101000a900460ff1615610466576040517f08c379a000000000000000000000000000000000000000000000000000000000815260040161045d9061078a565b60405180910390fd5b600034116104a9576040517f08c379a00000000000000000000000000000000000000000000000000000000081526004016104a0906107f6565b60405180910390fd5b346000808282546104ba9190610845565b925050819055507feebbaa86c348cb664e392b180fd0ff2e1998af9fa833ef69a778cb0b42d3ca27346040516104f0919061056f565b60405180910390a1565b600073ffffffffffffffffffffffffffffffffffffffff82169050919050565b6000610525826104fa565b9050919050565b6105358161051a565b82525050565b6000602082019050610550600083018461052c565b92915050565b6000819050919050565b61056981610556565b82525050565b60006020820190506105846000830184610560565b92915050565b60008115159050919050565b61059f8161058a565b82525050565b60006040820190506105ba6000830185610560565b6105c76020830184610596565b9392505050565b60006020820190506105e36000830184610596565b92915050565b600082825260208201905092915050565b7f4f6e6c79206261636b656e640000000000000000000000000000000000000000600082015250565b6000610630600c836105e9565b915061063b826105fa565b602082019050919050565b6000602082019050818103600083015261065f81610623565b9050919050565b7f4e6f207374616b65000000000000000000000000000000000000000000000000600082015250565b600061069c6008836105e9565b91506106a782610666565b602082019050919050565b600060208201905081810360008301526106cb8161068f565b9050919050565b7f4f6e6c7920757365720000000000000000000000000000000000000000000000600082015250565b60006107086009836105e9565b9150610713826106d2565b602082019050919050565b60006020820190508181036000830152610737816106fb565b9050919050565b7f536c617368656400000000000000000000000000000000000000000000000000600082015250565b60006107746007836105e9565b915061077f8261073e565b602082019050919050565b600060208201905081810360008301526107a381610767565b9050919050565b7f4e6f2076616c7565000000000000000000000000000000000000000000000000600082015250565b60006107e06008836105e9565b91506107eb826107aa565b602082019050919050565b6000602082019050818103600083015261080f816107d3565b9050919050565b7f4e487b7100000000000000000000000000000000000000000000000000000000600052601160045260246000fd5b600061085082610556565b915061085b83610556565b925082820190508082111561087357610872610816565b5b9291505056fea26469706673582212202aa496442ae705c4239d16aa4a7165d6dea9806e6798660da6ca2eb5bb3973e064736f6c63430008180033",
  "linkReferences": {},
  "deployedLinkReferences": {}
}