{
  "_format": "hh-sol-artifact-1",
  "contractName": "BigBlockEnabler",
  "sourceName": "contracts/BigBlockEnabler.sol",
  "abi": [
    {
      "anonymous": false,
      "inputs": [
        {
          "indexed": false,
          "internalType": "bytes",
          "name": "data",
          "type": "bytes"
        }
      ],
      "name": "ActionSent",
      "type": "event"
    },
    {
      "anonymous": false,
      "inputs": [
        {
          "indexed": true,
          "internalType": "address",
          "name": "user",
          "type": "address"
        }
      ],
      "name": "BigBlocksDisabled",
      "type": "event"
    },
    {
      "anonymous": false,
      "inputs": [
        {
          "indexed": true,
          "internalType": "address",
          "name": "user",
          "type": "address"
        }
      ],
      "name": "BigBlocksEnabled",
      "type": "event"
    },
    {
      "inputs": [],
      "name": "disableBigBlocks",
      "outputs": [],
      "stateMutability": "nonpayable",
      "type": "function"
    },
    {
      "inputs": [],
      "name": "enableBigBlocks",
      "outputs": [],
      "stateMutability": "nonpayable",
      "type": "function"
    },
    {
      "inputs": [
        {
          "internalType": "address",
          "name": "user",
          "type": "address"
        }
      ],
      "name": "isCoreUser",
      "outputs": [
        {
          "internalType": "bool",
          "name": "",
          "type": "bool"
        }
      ],
      "stateMutability": "view",
      "type": "function"
    }
  ],
  "bytecode": "0x608060405234801561001057600080fd5b50610799806100206000396000f3fe608060405234801561001057600080fd5b50600436106100415760003560e01c806340d68f2c146100465780635d45f2dd14610050578063afa5745a14610080575b600080fd5b61004e61008a565b005b61006a60048036038101906100659190610583565b610194565b60405161007791906105cb565b60405180910390f35b61008861019f565b005b600061009660016102a9565b905073333333333333333333333333333333333333333373ffffffffffffffffffffffffffffffffffffffff166317938e13826040518263ffffffff1660e01b81526004016100e59190610676565b600060405180830381600087803b1580156100ff57600080fd5b505af1158015610113573d6000803e3d6000fd5b505050503373ffffffffffffffffffffffffffffffffffffffff167f2a8703c4e2ccd5fbef9450c668049c1cad6a599c13e4cedb338a0c3d7b34d1fc60405160405180910390a27fe6daa0bd77c2cf4ec86209a8093053ed55bf9a9623af6d5bf245459038adf2e2816040516101899190610676565b60405180910390a150565b600060019050919050565b60006101ab60006102a9565b905073333333333333333333333333333333333333333373ffffffffffffffffffffffffffffffffffffffff166317938e13826040518263ffffffff1660e01b81526004016101fa9190610676565b600060405180830381600087803b15801561021457600080fd5b505af1158015610228573d6000803e3d6000fd5b505050503373ffffffffffffffffffffffffffffffffffffffff167f80cb4ae41c6788ff236313a2804bc79044c81869a2189afb3420c7c94d54d1dc60405160405180910390a27fe6daa0bd77c2cf4ec86209a8093053ed55bf9a9623af6d5bf245459038adf2e28160405161029e9190610676565b60405180910390a150565b60606000602060e81b90506000836040516020016102c791906105cb565b60405160208183030381529060405290506000815160046102e891906106d1565b67ffffffffffffffff81111561030157610300610705565b5b6040519080825280601f01601f1916602001820160405280156103335781602001600182028036833780820191505090505b509050600160f81b8160008151811061034f5761034e610734565b5b60200101907effffffffffffffffffffffffffffffffffffffffffffffffffffffffffffff1916908160001a9053508260006003811061039257610391610734565b5b1a60f81b816001815181106103aa576103a9610734565b5b60200101907effffffffffffffffffffffffffffffffffffffffffffffffffffffffffffff1916908160001a905350826001600381106103ed576103ec610734565b5b1a60f81b8160028151811061040557610404610734565b5b60200101907effffffffffffffffffffffffffffffffffffffffffffffffffffffffffffff1916908160001a9053508260026003811061044857610447610734565b5b1a60f81b816003815181106104605761045f610734565b5b60200101907effffffffffffffffffffffffffffffffffffffffffffffffffffffffffffff1916908160001a90535060005b8251811015610514578281815181106104ae576104ad610734565b5b602001015160f81c60f81b828260046104c791906106d1565b815181106104d8576104d7610734565b5b60200101907effffffffffffffffffffffffffffffffffffffffffffffffffffffffffffff1916908160001a9053508080600101915050610492565b50809350505050919050565b600080fd5b600073ffffffffffffffffffffffffffffffffffffffff82169050919050565b600061055082610525565b9050919050565b61056081610545565b811461056b57600080fd5b50565b60008135905061057d81610557565b92915050565b60006020828403121561059957610598610520565b5b60006105a78482850161056e565b91505092915050565b60008115159050919050565b6105c5816105b0565b82525050565b60006020820190506105e060008301846105bc565b92915050565b600081519050919050565b600082825260208201905092915050565b60005b83811015610620578082015181840152602081019050610605565b60008484015250505050565b6000601f19601f8301169050919050565b6000610648826105e6565b61065281856105f1565b9350610662818560208601610602565b61066b8161062c565b840191505092915050565b60006020820190508181036000830152610690818461063d565b905092915050565b6000819050919050565b7f4e487b7100000000000000000000000000000000000000000000000000000000600052601160045260246000fd5b60006106dc82610698565b91506106e783610698565b92508282019050808211156106ff576106fe6106a2565b5b92915050565b7f4e487b7100000000000000000000000000000000000000000000000000000000600052604160045260246000fd5b7f4e487b7100000000000000000000000000000000000000000000000000000000600052603260045260246000fdfea2646970667358221220976e0e3435f4306f9e6e3fcb7c12b84020681b346051fd9e52155012e7c5f80564736f6c63430008180033",
  "linkReferences": {},
  "deployedLinkReferences": {}
}