{
  "_format": "hh-sol-artifact-1",
  "contractName": "UserStaking",
  "sourceName": "contracts/UserStaking.sol",
  "abi": [
    {
      "inputs": [
        {
          "internalType": "address",
          "name": "_user",
          "type": "address"
        },
        {
          "internalType": "address",
          "name": "_validator",
          "type": "address"
        },
        {
          "internalType": "address",
          "name": "_backend",
          "type": "address"
        },
        {
          "internalType": "address",
          "name": "_sharedEOA",
          "type": "address"
        }
      ],
      "stateMutability": "nonpayable",
      "type": "constructor"
    },
    {
      "anonymous": false,
      "inputs": [
        {
          "indexed": true,
          "internalType": "address",
          "name": "from",
          "type": "address"
        },
        {
          "indexed": false,
          "internalType": "uint256",
          "name": "amount",
          "type": "uint256"
        }
      ],
      "name": "FundsDeposited",
      "type": "event"
    },
    {
      "anonymous": false,
      "inputs": [
        {
          "indexed": false,
          "internalType": "string",
          "name": "reason",
          "type": "string"
        },
        {
          "indexed": false,
          "internalType": "uint256",
          "name": "amount",
          "type": "uint256"
        }
      ],
      "name": "FundsSlashed",
      "type": "event"
    },
    {
      "anonymous": false,
      "inputs": [
        {
          "indexed": true,
          "internalType": "address",
          "name": "to",
          "type": "address"
        },
        {
          "indexed": false,
          "internalType": "uint256",
          "name": "amount",
          "type": "uint256"
        }
      ],
      "name": "FundsWithdrawn",
      "type": "event"
    },
    {
      "anonymous": false,
      "inputs": [
        {
          "indexed": true,
          "internalType": "address",
          "name": "validator",
          "type": "address"
        },
        {
          "indexed": false,
          "internalType": "uint256",
          "name": "amount",
          "type": "uint256"
        }
      ],
      "name": "StakeDelegated",
      "type": "event"
    },
    {
      "anonymous": false,
      "inputs": [
        {
          "indexed": true,
          "internalType": "address",
          "name": "validator",
          "type": "address"
        },
        {
          "indexed": false,
          "internalType": "uint256",
          "name": "amount",
          "type": "uint256"
        }
      ],
      "name": "StakeUndelegated",
      "type": "event"
    },
    {
      "anonymous": false,
      "inputs": [
        {
          "indexed": false,
          "internalType": "string",
          "name": "tradeId",
          "type": "string"
        }
      ],
      "name": "TradeCompleted",
      "type": "event"
    },
    {
      "anonymous": false,
      "inputs": [
        {
          "indexed": false,
          "internalType": "string",
          "name": "tradeId",
          "type": "string"
        }
      ],
      "name": "TradeRegistered",
      "type": "event"
    },
    {
      "inputs": [
        {
          "internalType": "string",
          "name": "",
          "type": "string"
        }
      ],
      "name": "activeTrades",
      "outputs": [
        {
          "internalType": "bool",
          "name": "",
          "type": "bool"
        }
      ],
      "stateMutability": "view",
      "type": "function"
    },
    {
      "inputs": [],
      "name": "backend",
      "outputs": [
        {
          "internalType": "address",
          "name": "",
          "type": "address"
        }
      ],
      "stateMutability": "view",
      "type": "function"
    },
    {
      "inputs": [
        {
          "internalType": "string",
          "name": "_tradeId",
          "type": "string"
        }
      ],
      "name": "completeTrade",
      "outputs": [],
      "stateMutability": "nonpayable",
      "type": "function"
    },
    {
      "inputs": [],
      "name": "depositAndStake",
      "outputs": [],
      "stateMutability": "payable",
      "type": "function"
    },
    {
      "inputs": [],
      "name": "factory",
      "outputs": [
        {
          "internalType": "address",
          "name": "",
          "type": "address"
        }
      ],
      "stateMutability": "view",
      "type": "function"
    },
    {
      "inputs": [],
      "name": "getStatus",
      "outputs": [
        {
          "internalType": "uint256",
          "name": "",
          "type": "uint256"
        },
        {
          "internalType": "bool",
          "name": "",
          "type": "bool"
        }
      ],
      "stateMutability": "view",
      "type": "function"
    },
    {
      "inputs": [
        {
          "internalType": "uint256",
          "name": "_amount",
          "type": "uint256"
        }
      ],
      "name": "hasSufficientStake",
      "outputs": [
        {
          "internalType": "bool",
          "name": "",
          "type": "bool"
        }
      ],
      "stateMutability": "view",
      "type": "function"
    },
    {
      "inputs": [],
      "name": "isSlashed",
      "outputs": [
        {
          "internalType": "bool",
          "name": "",
          "type": "bool"
        }
      ],
      "stateMutability": "view",
      "type": "function"
    },
    {
      "inputs": [
        {
          "internalType": "string",
          "name": "_tradeId",
          "type": "string"
        }
      ],
      "name": "registerTrade",
      "outputs": [],
      "stateMutability": "nonpayable",
      "type": "function"
    },
    {
      "inputs": [],
      "name": "sharedEOA",
      "outputs": [
        {
          "internalType": "address",
          "name": "",
          "type": "address"
        }
      ],
      "stateMutability": "view",
      "type": "function"
    },
    {
      "inputs": [
        {
          "internalType": "string",
          "name": "_reason",
          "type": "string"
        }
      ],
      "name": "slash",
      "outputs": [],
      "stateMutability": "nonpayable",
      "type": "function"
    },
    {
      "inputs": [],
      "name": "stakedAmount",
      "outputs": [
        {
          "internalType": "uint256",
          "name": "",
          "type": "uint256"
        }
      ],
      "stateMutability": "view",
      "type": "function"
    },
    {
      "inputs": [],
      "name": "user",
      "outputs": [
        {
          "internalType": "address",
          "name": "",
          "type": "address"
        }
      ],
      "stateMutability": "view",
      "type": "function"
    },
    {
      "inputs": [],
      "name": "validator",
      "outputs": [
        {
          "internalType": "address",
          "name": "",
          "type": "address"
        }
      ],
      "stateMutability": "view",
      "type": "function"
    },
    {
      "inputs": [],
      "name": "withdraw",
      "outputs": [],
      "stateMutability": "nonpayable",
      "type": "function"
    },
    {
      "stateMutability": "payable",
      "type": "receive"
    }
  ],
  "bytecode": "0x60806040523480156200001157600080fd5b506040516200202a3803806200202a8339818101604052810190620000379190620003b7565b600073ffffffffffffffffffffffffffffffffffffffff168473ffffffffffffffffffffffffffffffffffffffff1603620000a9576040517f08c379a0000000000000000000000000000000000000000000000000000000008152600401620000a0906200048a565b60405180910390fd5b600073ffffffffffffffffffffffffffffffffffffffff168373ffffffffffffffffffffffffffffffffffffffff16036200011b576040517f08c379a00000000000000000000000000000000000000000000000000000000081526004016200011290620004fc565b60405180910390fd5b600073ffffffffffffffffffffffffffffffffffffffff168273ffffffffffffffffffffffffffffffffffffffff16036200018d576040517f08c379a000000000000000000000000000000000000000000000000000000000815260040162000184906200056e565b60405180910390fd5b600073ffffffffffffffffffffffffffffffffffffffff168173ffffffffffffffffffffffffffffffffffffffff1603620001ff576040517f08c379a0000000000000000000000000000000000000000000000000000000008152600401620001f690620005e0565b60405180910390fd5b836000806101000a81548173ffffffffffffffffffffffffffffffffffffffff021916908373ffffffffffffffffffffffffffffffffffffffff16021790555082600160006101000a81548173ffffffffffffffffffffffffffffffffffffffff021916908373ffffffffffffffffffffffffffffffffffffffff16021790555081600260006101000a81548173ffffffffffffffffffffffffffffffffffffffff021916908373ffffffffffffffffffffffffffffffffffffffff16021790555080600360006101000a81548173ffffffffffffffffffffffffffffffffffffffff021916908373ffffffffffffffffffffffffffffffffffffffff16021790555033600460006101000a81548173ffffffffffffffffffffffffffffffffffffffff021916908373ffffffffffffffffffffffffffffffffffffffff1602179055505050505062000602565b600080fd5b600073ffffffffffffffffffffffffffffffffffffffff82169050919050565b60006200037f8262000352565b9050919050565b620003918162000372565b81146200039d57600080fd5b50565b600081519050620003b18162000386565b92915050565b60008060008060808587031215620003d457620003d36200034d565b5b6000620003e487828801620003a0565b9450506020620003f787828801620003a0565b93505060406200040a87828801620003a0565b92505060606200041d87828801620003a0565b91505092959194509250565b600082825260208201905092915050565b7f496e76616c696420757365720000000000000000000000000000000000000000600082015250565b600062000472600c8362000429565b91506200047f826200043a565b602082019050919050565b60006020820190508181036000830152620004a58162000463565b9050919050565b7f496e76616c69642076616c696461746f72000000000000000000000000000000600082015250565b6000620004e460118362000429565b9150620004f182620004ac565b602082019050919050565b600060208201905081810360008301526200051781620004d5565b9050919050565b7f496e76616c6964206261636b656e640000000000000000000000000000000000600082015250565b600062000556600f8362000429565b915062000563826200051e565b602082019050919050565b60006020820190508181036000830152620005898162000547565b9050919050565b7f496e76616c69642073686172656420454f410000000000000000000000000000600082015250565b6000620005c860128362000429565b9150620005d58262000590565b602082019050919050565b60006020820190508181036000830152620005fb81620005b9565b9050919050565b611a1880620006126000396000f3fe6080604052600436106100ec5760003560e01c80634f8632ba1161008a57806396bd2f511161005957806396bd2f51146102c1578063c45a0155146102ea578063e658ea0314610315578063f6bddf481461033e576100f3565b80634f8632ba1461023657806353d21c901461026157806366519bd61461028c5780637ad3e4a914610296576100f3565b80633ccfd60b116100c65780633ccfd60b146101795780633e42672a146101905780634c10f1eb146101cd5780634e69d5601461020a576100f3565b8063099e4133146100f8578063373d6132146101235780633a5381b51461014e576100f3565b366100f357005b600080fd5b34801561010457600080fd5b5061010d610367565b60405161011a91906110a4565b60405180910390f35b34801561012f57600080fd5b5061013861038d565b60405161014591906110d8565b60405180910390f35b34801561015a57600080fd5b50610163610393565b60405161017091906110a4565b60405180910390f35b34801561018557600080fd5b5061018e6103b9565b005b34801561019c57600080fd5b506101b760048036038101906101b29190611133565b61073d565b6040516101c4919061117b565b60405180910390f35b3480156101d957600080fd5b506101f460048036038101906101ef91906112dc565b610765565b604051610201919061117b565b60405180910390f35b34801561021657600080fd5b5061021f61079b565b60405161022d929190611325565b60405180910390f35b34801561024257600080fd5b5061024b6107ba565b60405161025891906110a4565b60405180910390f35b34801561026d57600080fd5b506102766107de565b604051610283919061117b565b60405180910390f35b6102946107f1565b005b3480156102a257600080fd5b506102ab610a8e565b6040516102b891906110a4565b60405180910390f35b3480156102cd57600080fd5b506102e860048036038101906102e391906113ae565b610ab4565b005b3480156102f657600080fd5b506102ff610c27565b60405161030c91906110a4565b60405180910390f35b34801561032157600080fd5b5061033c600480360381019061033791906113ae565b610c4d565b005b34801561034a57600080fd5b50610365600480360381019061036091906113ae565b610e9f565b005b600260009054906101000a900473ffffffffffffffffffffffffffffffffffffffff1681565b60055481565b600160009054906101000a900473ffffffffffffffffffffffffffffffffffffffff1681565b60008054906101000a900473ffffffffffffffffffffffffffffffffffffffff1673ffffffffffffffffffffffffffffffffffffffff163373ffffffffffffffffffffffffffffffffffffffff1614610447576040517f08c379a000000000000000000000000000000000000000000000000000000000815260040161043e90611458565b60405180910390fd5b600660009054906101000a900460ff1615610497576040517f08c379a000000000000000000000000000000000000000000000000000000000815260040161048e906114c4565b60405180910390fd5b6000600554116104dc576040517f08c379a00000000000000000000000000000000000000000000000000000000081526004016104d390611530565b60405180910390fd5b60006005549050600060058190555073333333333333333333333333333333333333333373ffffffffffffffffffffffffffffffffffffffff16638ac02037600160009054906101000a900473ffffffffffffffffffffffffffffffffffffffff16836040518363ffffffff1660e01b815260040161055c929190611550565b600060405180830381600087803b15801561057657600080fd5b505af115801561058a573d6000803e3d6000fd5b5050505060008060009054906101000a900473ffffffffffffffffffffffffffffffffffffffff1673ffffffffffffffffffffffffffffffffffffffff16826040516105d5906115aa565b60006040518083038185875af1925050503d8060008114610612576040519150601f19603f3d011682016040523d82523d6000602084013e610617565b606091505b505090508061065b576040517f08c379a00000000000000000000000000000000000000000000000000000000081526004016106529061160b565b60405180910390fd5b600160009054906101000a900473ffffffffffffffffffffffffffffffffffffffff1673ffffffffffffffffffffffffffffffffffffffff167fca1fa4e96138c0ec8d27c789867387ffba9f32f6a92f1d749f13d7047f697373836040516106c391906110d8565b60405180910390a260008054906101000a900473ffffffffffffffffffffffffffffffffffffffff1673ffffffffffffffffffffffffffffffffffffffff167feaff4b37086828766ad3268786972c0cd24259d4c87a80f9d3963a3c3d999b0d8360405161073191906110d8565b60405180910390a25050565b6000600660009054906101000a900460ff1615801561075e57508160055410155b9050919050565b6007818051602081018201805184825260208301602085012081835280955050505050506000915054906101000a900460ff1681565b600080600554600660009054906101000a900460ff1615915091509091565b60008054906101000a900473ffffffffffffffffffffffffffffffffffffffff1681565b600660009054906101000a900460ff1681565b60008054906101000a900473ffffffffffffffffffffffffffffffffffffffff1673ffffffffffffffffffffffffffffffffffffffff163373ffffffffffffffffffffffffffffffffffffffff161461087f576040517f08c379a000000000000000000000000000000000000000000000000000000000815260040161087690611458565b60405180910390fd5b600660009054906101000a900460ff16156108cf576040517f08c379a00000000000000000000000000000000000000000000000000000000081526004016108c6906114c4565b60405180910390fd5b60003411610912576040517f08c379a000000000000000000000000000000000000000000000000000000000815260040161090990611677565b60405180910390fd5b346005600082825461092491906116c6565b9250508190555073333333333333333333333333333333333333333373ffffffffffffffffffffffffffffffffffffffff16633c323a1b600160009054906101000a900473ffffffffffffffffffffffffffffffffffffffff16346040518363ffffffff1660e01b815260040161099c929190611550565b600060405180830381600087803b1580156109b657600080fd5b505af11580156109ca573d6000803e3d6000fd5b505050503373ffffffffffffffffffffffffffffffffffffffff167f543ba50a5eec5e6178218e364b1d0f396157b3c8fa278522c2cb7fd99407d47434604051610a1491906110d8565b60405180910390a2600160009054906101000a900473ffffffffffffffffffffffffffffffffffffffff1673ffffffffffffffffffffffffffffffffffffffff167fce6ec2ad0b1fefbce7d2cc45705da0c96251687f34eba5fb16067ba45dc427f434604051610a8491906110d8565b60405180910390a2565b600360009054906101000a900473ffffffffffffffffffffffffffffffffffffffff1681565b600260009054906101000a900473ffffffffffffffffffffffffffffffffffffffff1673ffffffffffffffffffffffffffffffffffffffff163373ffffffffffffffffffffffffffffffffffffffff1614610b44576040517f08c379a0000000000000000000000000000000000000000000000000000000008152600401610b3b90611746565b60405180910390fd5b60078282604051610b56929190611796565b908152602001604051809103902060009054906101000a900460ff16610bb1576040517f08c379a0000000000000000000000000000000000000000000000000000000008152600401610ba8906117fb565b60405180910390fd5b600060078383604051610bc5929190611796565b908152602001604051809103902060006101000a81548160ff0219169083151502179055507fe617adcd67d096536e57efdd97e74586689dcbd61e150e6fe63c08a78e198adb8282604051610c1b929190611848565b60405180910390a15050565b600460009054906101000a900473ffffffffffffffffffffffffffffffffffffffff1681565b600260009054906101000a900473ffffffffffffffffffffffffffffffffffffffff1673ffffffffffffffffffffffffffffffffffffffff163373ffffffffffffffffffffffffffffffffffffffff1614610cdd576040517f08c379a0000000000000000000000000000000000000000000000000000000008152600401610cd490611746565b60405180910390fd5b600660009054906101000a900460ff1615610d2d576040517f08c379a0000000000000000000000000000000000000000000000000000000008152600401610d24906114c4565b60405180910390fd5b600060055411610d72576040517f08c379a0000000000000000000000000000000000000000000000000000000008152600401610d69906118b8565b60405180910390fd5b6001600660006101000a81548160ff0219169083151502179055506000600360009054906101000a900473ffffffffffffffffffffffffffffffffffffffff1673ffffffffffffffffffffffffffffffffffffffff16600554604051610dd7906115aa565b60006040518083038185875af1925050503d8060008114610e14576040519150601f19603f3d011682016040523d82523d6000602084013e610e19565b606091505b5050905080610e5d576040517f08c379a0000000000000000000000000000000000000000000000000000000008152600401610e5490611924565b60405180910390fd5b7fd6b9bb9fd94c3cd89f56be487d4a54c8ee880eff62e3346d543ce6e0a29ee2c78383600554604051610e9293929190611944565b60405180910390a1505050565b600260009054906101000a900473ffffffffffffffffffffffffffffffffffffffff1673ffffffffffffffffffffffffffffffffffffffff163373ffffffffffffffffffffffffffffffffffffffff1614610f2f576040517f08c379a0000000000000000000000000000000000000000000000000000000008152600401610f2690611746565b60405180910390fd5b600660009054906101000a900460ff1615610f7f576040517f08c379a0000000000000000000000000000000000000000000000000000000008152600401610f76906114c4565b60405180910390fd5b60078282604051610f91929190611796565b908152602001604051809103902060009054906101000a900460ff1615610fed576040517f08c379a0000000000000000000000000000000000000000000000000000000008152600401610fe4906119c2565b60405180910390fd5b600160078383604051611001929190611796565b908152602001604051809103902060006101000a81548160ff0219169083151502179055507fb07aff3f1bdb11998bb847f501ffd8720e1f721dac70b8ae251a74f96cae06188282604051611057929190611848565b60405180910390a15050565b600073ffffffffffffffffffffffffffffffffffffffff82169050919050565b600061108e82611063565b9050919050565b61109e81611083565b82525050565b60006020820190506110b96000830184611095565b92915050565b6000819050919050565b6110d2816110bf565b82525050565b60006020820190506110ed60008301846110c9565b92915050565b6000604051905090565b600080fd5b600080fd5b611110816110bf565b811461111b57600080fd5b50565b60008135905061112d81611107565b92915050565b600060208284031215611149576111486110fd565b5b60006111578482850161111e565b91505092915050565b60008115159050919050565b61117581611160565b82525050565b6000602082019050611190600083018461116c565b92915050565b600080fd5b600080fd5b6000601f19601f8301169050919050565b7f4e487b7100000000000000000000000000000000000000000000000000000000600052604160045260246000fd5b6111e9826111a0565b810181811067ffffffffffffffff82111715611208576112076111b1565b5b80604052505050565b600061121b6110f3565b905061122782826111e0565b919050565b600067ffffffffffffffff821115611247576112466111b1565b5b611250826111a0565b9050602081019050919050565b82818337600083830152505050565b600061127f61127a8461122c565b611211565b90508281526020810184848401111561129b5761129a61119b565b5b6112a684828561125d565b509392505050565b600082601f8301126112c3576112c2611196565b5b81356112d384826020860161126c565b91505092915050565b6000602082840312156112f2576112f16110fd565b5b600082013567ffffffffffffffff8111156113105761130f611102565b5b61131c848285016112ae565b91505092915050565b600060408201905061133a60008301856110c9565b611347602083018461116c565b9392505050565b600080fd5b600080fd5b60008083601f84011261136e5761136d611196565b5b8235905067ffffffffffffffff81111561138b5761138a61134e565b5b6020830191508360018202830111156113a7576113a6611353565b5b9250929050565b600080602083850312156113c5576113c46110fd565b5b600083013567ffffffffffffffff8111156113e3576113e2611102565b5b6113ef85828601611358565b92509250509250929050565b600082825260208201905092915050565b7f4f6e6c7920757365722063616e2063616c6c0000000000000000000000000000600082015250565b60006114426012836113fb565b915061144d8261140c565b602082019050919050565b6000602082019050818103600083015261147181611435565b9050919050565b7f436f6e747261637420686173206265656e20736c617368656400000000000000600082015250565b60006114ae6019836113fb565b91506114b982611478565b602082019050919050565b600060208201905081810360008301526114dd816114a1565b9050919050565b7f4e6f2066756e647320746f207769746864726177000000000000000000000000600082015250565b600061151a6014836113fb565b9150611525826114e4565b602082019050919050565b600060208201905081810360008301526115498161150d565b9050919050565b60006040820190506115656000830185611095565b61157260208301846110c9565b9392505050565b600081905092915050565b50565b6000611594600083611579565b915061159f82611584565b600082019050919050565b60006115b582611587565b9150819050919050565b7f5769746864726177616c206661696c6564000000000000000000000000000000600082015250565b60006115f56011836113fb565b9150611600826115bf565b602082019050919050565b60006020820190508181036000830152611624816115e8565b9050919050565b7f4d757374206465706f7369742066756e64730000000000000000000000000000600082015250565b60006116616012836113fb565b915061166c8261162b565b602082019050919050565b6000602082019050818103600083015261169081611654565b9050919050565b7f4e487b7100000000000000000000000000000000000000000000000000000000600052601160045260246000fd5b60006116d1826110bf565b91506116dc836110bf565b92508282019050808211156116f4576116f3611697565b5b92915050565b7f4f6e6c79206261636b656e642063616e2063616c6c0000000000000000000000600082015250565b60006117306015836113fb565b915061173b826116fa565b602082019050919050565b6000602082019050818103600083015261175f81611723565b9050919050565b600081905092915050565b600061177d8385611766565b935061178a83858461125d565b82840190509392505050565b60006117a3828486611771565b91508190509392505050565b7f5472616465206e6f7420666f756e640000000000000000000000000000000000600082015250565b60006117e5600f836113fb565b91506117f0826117af565b602082019050919050565b60006020820190508181036000830152611814816117d8565b9050919050565b600061182783856113fb565b935061183483858461125d565b61183d836111a0565b840190509392505050565b6000602082019050818103600083015261186381848661181b565b90509392505050565b7f4e6f2066756e647320746f20736c617368000000000000000000000000000000600082015250565b60006118a26011836113fb565b91506118ad8261186c565b602082019050919050565b600060208201905081810360008301526118d181611895565b9050919050565b7f536c617368207472616e73666572206661696c65640000000000000000000000600082015250565b600061190e6015836113fb565b9150611919826118d8565b602082019050919050565b6000602082019050818103600083015261193d81611901565b9050919050565b6000604082019050818103600083015261195f81858761181b565b905061196e60208301846110c9565b949350505050565b7f547261646520616c726561647920726567697374657265640000000000000000600082015250565b60006119ac6018836113fb565b91506119b782611976565b602082019050919050565b600060208201905081810360008301526119db8161199f565b905091905056fea2646970667358221220d0bad4ba5ba0bb69393d6f2161ce73595c1eb988bbbd041f84040ea4a632a59164736f6c63430008180033",
  "linkReferences": {},
  "deployedLinkReferences": {}
}